:100000000C94B2020C94CF020C94CF020C94CF0249
:100010000C94CF020C94CF020C94CF020C94CF021C
:100020000C94CF020C94CF020C94CF020C94CF020C
:100030000C94CF020C94CF020C94CF020C94CF02FC
:100040000C94CF020C94CF020C94CF020C94CF02EC
:100050000C94CF020C94CF020C94CF020C94CF02DC
:100060000C94CF020C94CF0200000000007CDAF266
:10007000DA7C7CD6F2D67C387C3E7C38183C7E3CE0
:100080001838EABEEA38387AFE7A3800183C180088
:10009000FFE7C3E7FF0018241800FFE7DBE7FF0CCA
:1000A000125C607064949E946402FEA0A0E002FE64
:1000B000A0A4FC5A3CE73C5AFE7C38381010383873
:1000C0007CFE2844FE4428FAFA00FAFA6090FE808A
:1000D000FE006691A95606060606062945FF452933
:1000E00010207E201008047E0408101054381010D0
:1000F00038541010780808080830783078300C1C14
:100100007C1C0C60707C706000000000000000FA35
:10011000000000E000E00028FE28FE282454FE54E1
:1001200048C4C81026466C926A040A0010E0C00059
:10013000003844820000824438005438FE3854109D
:10014000107C101000010E0C001010101010000098
:1001500006060004081020407C8A92A27C0042FE21
:1001600002004E92929262848292B2CC182848FE8B
:1001700008E4A2A2A29C3C5292928C82848890E0D5
:100180006C9292926C629292947800002800000027
:10019000022C0000001028448228282828280082E9
:1001A00044281040809A90607C82BA9A723E4888B7
:1001B000483EFE9292926C7C82828244FE828282CF
:1001C0007CFE92929282FE909090807C82828ACE77
:1001D000FE101010FE0082FE8200040282FC80FEEF
:1001E00010284482FE02020202FE403840FEFE2039
:1001F0001008FE7C8282827CFE909090607C828AD5
:10020000847AFE90989462649292924CC080FE80B0
:10021000C0FC020202FCF8040204F8FC021C02FC0E
:10022000C6281028C6C0201E20C0869A92B2C200DE
:10023000FE828282402010080400828282FE2040DA
:10024000804020020202020200C0E01000042A2ABC
:100250001E02FE1422221C1C222222141C22221402
:10026000FE1C2A2A2A1800107E9040182525391EC7
:10027000FE1020201E0022BE0200040202BC00FE6E
:10028000081422000082FE02003E201E201E3E10A6
:1002900020201E1C2222221C3F182424181824244B
:1002A000183F3E10202010122A2A2A242020FC2247
:1002B000243C0202043E38040204383C020C023C96
:1002C0002214081422320909093E22262A32220069
:1002D000106C82000000EE000000826C1000408074
:1002E0004020403C64C4643C78858586485C0202BA
:1002F000045E1C2A2AAA9A84AAAA9E82842A2A1EFA
:100300008284AA2A1E02042AAA9E0230784A4E48F3
:100310009CAAAAAA9A9C2A2A2A9A9CAA2A2A1A0041
:1003200000A23E820040A2BE420080A23E020F9484
:1003300024940F0F14A4140F3E2AAAA200042A2A00
:100340003E2A3E5090FE924C9292924C4C121212C7
:100350004C4C5212120C5C8282845E5C4202041E7F
:1003600000B90505BE9C2222229CBC020202BC3CB4
:1003700024FF2424127E92C266D4F43FF4D4FF906A
:10038000946F0403117E90C0042A2A9E82000022EA
:10039000BE820C1212524C1C0202445E005E50508F
:1003A0004EBEB0988CBE649494F414649494946497
:1003B0000C12B202041C10101010101010101CF4BB
:1003C0000813355DF408142C5F0000DE00001028CF
:1003D00054284444285428105500AA005555AA55BD
:1003E000AA55AA55AA55AA000000FF00080808FF50
:1003F00000282828FF000808FF00FF08080F080F42
:100400002828283F002828EF00FF0000FF00FF28D1
:10041000282F203F2828E808F80808F808F8282896
:1004200028F8000808080F00000000F8080808086D
:10043000F8080808080F08000000FF080808080866
:1004400008080808FF08000000FF280000FF00FF60
:100450000000F808E800003F202F2828E808E828D6
:10046000282F202F0000FF00EF28282828282828E0
:10047000EF00EF282828E8280808F808F828282896
:100480002F2808080F080F0000F808F8000000F8EF
:10049000280000003F2800000F080F0808FF08FF91
:1004A000282828FF28080808F8000000000F08FF87
:1004B000FFFFFFFF0F0F0F0F0FFFFFFF00000000F8
:1004C00000FFFFF0F0F0F0F01C22221C223E5454FA
:1004D0007C287E40406060407E407E40C6AA92827A
:1004E000C61C22223C20027E04780460407E4040EC
:1004F00099A5E7A5993854925438324E804E320C63
:1005000052B2B20C0C121E120C3D465A62BC7C92C6
:100510009292007E8080807E54545454542222FA59
:100520002222028A5222020222528A020000FF8004
:10053000C00701FF00001010D6D6106C486C246C68
:1005400060F090F060000018180000000808000C2F
:1005500002FF808000F88080780098B8E848003C6E
:100560003C3C3C0011241FBECFEFD8E0DEBFCDBF26
:1005700015E0A0E0B1E0EAEFF7E002C005900D92CF
:10058000A031B107D9F725E0A0E1B5E001C01D9287
:10059000A231B207E1F70E94BA030C94FB030C945A
:1005A000000027E030E090E05D98AC01022E02C030
:1005B000559547950A94E2F740FF02C05E9A01C044
:1005C0005E985D9A2150310978F708955C980C94F3
:1005D000D102569A559A549A539A529A5A985B98BD
:1005E0002FEF89E698E1215080409040E1F700C06C
:1005F00000005B9A83EA0E94E60280EA0E94E6021B
:1006000080EC0E94E60280E40E94E6028CE20E94F6
:10061000E6022FEF80E792E0215080409040E1F722
:1006200000C000008EE20E94E6022FEF80E792E019
:10063000215080409040E1F700C000008FE20E940E
:10064000E6028FE39CE90197F1F700C0000086E223
:100650000C94E6025C9A0C94D102CF93DF93D0E025
:100660008D2F806B0E94E602C0E08C2F8F700E945D
:10067000E6028C2F82958F7080610E94E60280E0F6
:100680000E942A03CF5FC13881F7DF5FD83041F77E
:10069000DF91CF910895CF93C82F81E80E94E602A1
:1006A0008C2F8F73CF910C94E602DF92EF92FF9222
:1006B0000F931F93CF93DF93C0E0D5E08C01888127
:1006C0002296806B0E94E60280E00E94E60280E1B2
:1006D0000E94E60280EE0E94E6028FEF0E942A034B
:1006E0007801D12CF70181917F010E942A03D394D4
:1006F000F0E8DF12F7CF00581F4F85E0C031D80770
:10070000F1F6DF91CF911F910F91FF90EF90DF9065
:10071000089520E034E0FC01A901119241505040BD
:10072000E1F70895CF93DF9355E0259F90011124C1
:10073000A0E0B0E028593F4F50E8459F800D911D43
:100740001124F901EA0FFB1FE491462F4A0FEC0137
:10075000C40FD11DE8831196A530B10591F7DF9143
:10076000CF910895089508950895089508950895DE
:1007700008950895579A5F988BB18BB984B18560BD
:1007800084B985B18A7F85B985B185B90E94E902AE
:100790008FEA0E94E60288E10E944B0380E091E02C
:1007A0000E9455032AEA36EE86E991E02150304056
:1007B00080409040D9F7000080E091E00E948903DA
:1007C0002091110540E060E080E091E00E949203FA
:1007D00080E091E00E9455032FEF33E284EF215037
:1007E00030408040E1F700C00000809111058F5F2C
:0A07F00080931105E5CFF894FFCFC8
:1007FA007F7F7F7F717F717F7F7F7F7F7E7F7A7B25
:10080A007F7F7F7F7F7F7F7F7F717F7F717F7F7F0A
:10081A000000606060787F7F7F7F7F6060606060DB
:10082A0060707078783E3F1F1F0F070100000000BC
:10083A0000000000000000000000000000000000AE
:10084A00000000000000000000000000000000009E
:10085A00000000000000000000000000000000008E
:10086A00000000000000000000000000000000007E
:10087A00FFFFF0F0F0F0F0F0F0F0F0F0F1F3F7FF36
:10088A00FFFFF7F1F0F0F0F0F0F0F0F0F0F0F0FF29
:10089A00000000000000FFFFFFFFFF000000000053
:1008AA0000000000000083FFFFFFFFFF3C00010182
:1008BA000303030303030101000000000101010116
:1008CA0003030303030000010103030303030301FA
:1008DA0000000000000001010103030303030000FC
:1008EA0000010103030303030101000000000000EB
:1008FA00E0FF03000103070F1E3E7FFFFFFF9F0F6C
:10090A000F8FFFFFFF7F3E1E0F07030100013FFC11
:10091A00000000000000FFFFFFFFFF1C1C1C1C1C46
:10092A001C1C1C3C78F8F8F8F1EFDFFF7FFFE1C1EF
:10093A008181818181C1E1F9FFFF7F1F878080C0AA
:10094A00FFFFFFFFFF78F0E0C0C0C0C0C0E0FFFFBC
:10095A00FFFF3F070000808080FFFFFFFFFF3C781A
:10096A00F0E0C0C0C0C0E0F0FFFFFF7F1F00000042
:10097A000080E0F8FCFFFF3F1F1E3CF8F0E0C0805B
:10098A0000C0E0F0F83C1E1F3FFFFFFCF8E08000CB
:10099A00000000000000FFFFFFFFFF000000000052
:1009AA000000000000000000FEFFFFFFFFBF818083
:1009BA0080808080808080808080808080000000AD
:1009CA00FFFFFFFFFF000000000000000000FFFF24
:1009DA00FFFFFFFF0000000000FFFFFFFFFF000016
:1009EA000000000000000000FFFFFFFFFF00000002
:1009FA0000000000000080C0E07030180C0C0606F1
:100A0A00060C0C18183060E0C080000000000000DE
:100A1A000000060E0E3EFEFEFEFEFE7E0E0E0600D6
:100A2A0000000000000000000080E0F0F8FCFC7EFE
:100A3A003E1E0E0E0E060E0E0E1C3878E6060E1E12
:100A4A00FEFEFEFEFE0E0E0600000006060EFEFE6E
:100A5A00FEFEFEFE0E0E06060EFEFEFEFEFE7E0EDC
:100A6A000E06000000060E0EFEFEFEFEFE1E0E061E
:100A7A00000000000000000000000000000000006C
:100A8A00000000000000010100000000000000005A
:100A9A000000000000000000000000010101000049
:100AAA00000000000101000000000000000000003A
:100ABA000000000001010100000000000000010127
:100ACA00000000000000000000000000000000001C
:100ADA00000000000000000000000000000000000C
:100AEA0000000000000000000000000000000000FC
:100AFA000000FFFFCECECECE001F1F1F38381F1FAB
:100B0A001C383C1F0F00FFFF1C38381F1F07071F28
:100B1A001F3B3B1F1F07071F1F3838FFFFFF000F30
:100B2A001F38381CFFFF000F1F1F3B3B1F1F070FFB
:100B3A001F1F3838FFFFFF0000000078FCFCCECFF3
:100B4A00C7C3181F1F03031F1F181E1F3F3B1B018C
:100B5A0018FFFF1818000F1F3B3B3B1F0F001F1FFA
:100B6A001C383C1F1F18383F1F07001F3F3B3B190B
:100B7A000000F0F07070707000F0F0F00000F0F01B
:100B8A00000000F0F000F0F0F07070F0E080C0E0DB
:100B9A00F07030707000C0E0F07070E0F0F000E0CB
:100BAA00F0707070F0F000C0E0F07030707000C04B
:100BBA00E0F07070F0F0F0000000006070703070CB
:100BCA00F0E00000EEFEFCE00000707030F0F0E0B3
:100BDA0000E0F0707000E0F0703030706000F0F00B
:100BEA00000000F0F00000F0F0F0607030B0F0E0CB
:100BFA0003000200010000000700060005000400CF
:00000001FF
